:100000000C942A000C943F000C943F000C943F0089
:100010000C943F000C943F000C943F000C943F0064
:100020000C943F000C943F000C943F000C943F0054
:100030000C943F000C943F000C943F000C943F0044
:100040000C943F000C943F000C943F000C943F0034
:100050000C943F0011241FBECFE5D8E0DEBFCDBF1A
:1000600010E0A0E6B0E0E6E7F9E302C005900D92EB
:10007000A038B107D9F70E9432100C94B91C0C9427
:100080000000EF92FF920F931F937B018C0120E001
:1000900030E040E05FE40E94410388238CF0C80117
:1000A000B70120E030E040E05FE40E94B9010E9427
:1000B000A1039B01AC01205030404040504806C095
:1000C000C801B7010E94A1039B01AC01B901CA019B
:1000D0001F910F91FF90EF900895A0E0B0E0E3E74B
:1000E000F0E00C94821CDC012B01FA019C9192300F
:1000F00008F439C1EB018881823008F433C19430AF
:1001000069F4843009F02FC111969C91119789816F
:10011000981709F428C1A0E6B0E025C1843009F49D
:1001200021C18230A9F4923009F01DC19A01AD01BC
:1001300088E0EA010990AE01E90109929E0181502F
:10014000C1F7E201898111969C918923818308C1BD
:10015000923009F407C112962D903C901397EB0151
:100160008A819B811496AD90BD90CD90DC901797BD
:10017000EC80FD800E811F819101281B390BB90194
:1001800037FF04C066277727621B730B6032710547
:100190000CF061C0121613066CF537014801062EEB
:1001A00004C096948794779467940A94D2F721E0D8
:1001B00030E040E050E004C0220F331F441F551FC1
:1001C0006A95D2F721503040404050402E213F21C7
:1001D00040235123211531054105510521F021E02E
:1001E00030E040E050E079018A01E628F72808294C
:1001F00019293CC0232BD1F1260E371E35014601AB
:10020000062E04C096948794779467940A94D2F744
:1002100021E030E040E050E004C0220F331F441FD3
:10022000551F6A95D2F721503040404050402A2156
:100230003B214C215D21211531054105510521F05E
:1002400021E030E040E050E059016A01A628B728DB
:10025000C828D9280BC0821593052CF01C01AA24AC
:10026000BB24650103C0EE24FF24870111969C91F5
:10027000D20111968C91981709F445C0992339F051
:10028000A80197012A193B094C095D0906C0A6017E
:1002900095012E193F09400B510B57FD08C01182E3
:1002A0003382228224833583468357831DC081E0B5
:1002B00081833382228288279927DC01821B930B5A
:1002C000A40BB50B84839583A683B7830DC0220F3F
:1002D000331F441F551F24833583468357838281F0
:1002E000938101979383828324813581468157814D
:1002F000DA01C9010197A109B1098F5F9F4FAF4F83
:10030000BF4328F30BC0918333822282EA0CFB1C8B
:100310000C1D1D1DE482F5820683178383E0808314
:10032000248135814681578157FF1AC0C901AA2708
:1003300097FDA095BA2F81709070A070B0705695FF
:10034000479537952795822B932BA42BB52B848328
:100350009583A683B7838281938101969383828359
:10036000DF0101C0D201CD01CDB7DEB7E2E10C94CF
:100370009E1CA0E2B0E0EFEBF1E00C948E1C6983D0
:100380007A838B839C832D833E834F835887E9E058
:10039000EE2EF12CEC0EFD1ECE010196B7010E944F
:1003A000CA048E010F5E1F4FCE010596B8010E9450
:1003B000CA048A8991E089278A8BC701B801AE01F6
:1003C000475E5F4F0E946D000E94F503A096E6E035
:1003D0000C94AA1CA0E2B0E0E0EFF1E00C948E1CBB
:1003E00069837A838B839C832D833E834F835887D5
:1003F000F9E0EF2EF12CEC0EFD1ECE010196B701B7
:100400000E94CA048E010F5E1F4FCE010596B801EF
:100410000E94CA04C701B801AE01475E5F4F0E9447
:100420006D000E94F503A096E6E00C94AA1CA0E2E1
:10043000B0E0EDE1F2E00C94821C69837A838B8357
:100440009C832D833E834F835887CE010196BE0146
:10045000675F7F4F0E94CA04CE010596BE016F5EA2
:100460007F4F0E94CA049985923088F08989823032
:10047000C8F0943019F4823051F404C0843029F467
:10048000923081F480E690E0C6C0923049F420E0DA
:100490009A858A89981321E02A87CE010996BBC0E4
:1004A000823049F420E09A858A89981321E02A8BCA
:1004B000CE014196B0C02D843E844F8458886D880B
:1004C0007E888F88988CEE24FF248701AA24BB2481
:1004D000650140E050E060E070E0E0E0F0E0C10184
:1004E00081709070892BE9F0E60CF71C081D191D2E
:1004F0009A01AB012A0D3B1D4C1D5D1D80E090E073
:10050000A0E0B0E0E614F7040805190520F481E046
:1005100090E0A0E0B0E0BA01A901480F591F6A1F9E
:100520007B1FAA0CBB1CCC1CDD1C97FE08C081E005
:1005300090E0A0E0B0E0A82AB92ACA2ADB2A3196C6
:10054000E032F10549F0660C771C881C991C569422
:10055000479437942794C3CFFA85EA892B893C893D
:100560008B859C85280F391F2E5F3F4F17C0CA010E
:1005700081709070892B61F016950795F794E79438
:1005800080E090E0A0E0B0E8E82AF92A0A2B1B2BD3
:1005900076956795579547952F5F3F4F77FDE7CF46
:1005A0000CC0440F551F661F771F17FD4160EE0CEE
:1005B000FF1C001F111F21503040403090E05907B0
:1005C00090E0690790E4790760F32B8F3C8FDB01A3
:1005D000CA018F779070A070B07080349105A1052A
:1005E000B10561F447FD0AC0E114F10401051105EC
:1005F00029F0405C5F4F6F4F7F4F40781A8EFE1797
:1006000011F081E08A8F4D8F5E8F6F8F78A383E02A
:10061000898FCE0149960E94F503A096E2E10C94E1
:100620009E1CA8E1B0E0E7E1F3E00C948E1C698326
:100630007A838B839C832D833E834F83588789E005
:10064000E82EF12CEC0EFD1ECE010196B7010E94A2
:10065000CA048E010F5E1F4FCE010596B8010E949D
:10066000CA048985823040F08989823028F0C70128
:10067000B8010E94420501C08FEF6896E6E00C9435
:10068000AA1CA8E1B0E0E7E4F3E00C948E1C6983B7
:100690007A838B839C832D833E834F83588789E0A5
:1006A000E82EF12CEC0EFD1ECE010196B7010E9442
:1006B000CA048E010F5E1F4FCE010596B8010E943D
:1006C000CA048985823040F08989823028F0C701C8
:1006D000B8010E94420501C08FEF6896E6E00C94D5
:1006E000AA1CA8E1B0E0E7E7F3E00C948E1C698354
:1006F0007A838B839C832D833E834F83588789E045
:10070000E82EF12CEC0EFD1ECE010196B7010E94E1
:10071000CA048E010F5E1F4FCE010596B8010E94DC
:10072000CA048985823040F08989823028F0C70167
:10073000B8010E94420501C081E06896E6E00C9491
:10074000AA1CACE0B0E0E7EAF3E00C94921C6983E9
:100750007A838B839C83CE010196BE016B5F7F4FB2
:100760000E94CA048D81823061F1823050F1843060
:1007700021F48E81882351F12EC02F81388537FDD9
:1007800020C06E812F3131051CF06623F9F023C0A3
:100790008EE190E0821B930B29853A854B855C8521
:1007A00004C056954795379527958A95D2F76623C5
:1007B000B1F050954095309521953F4F4F4F5F4F89
:1007C0000EC020E030E040E050E009C02FEF3FEFE6
:1007D0004FEF5FE704C020E030E040E050E8B901AF
:1007E000CA012C96E2E00C94AE1CDF92EF92FF92CD
:1007F0000F931F93FC01E480F58006811781D1805F
:100800008081823048F480E090E0A0E1B0E0E82A06
:10081000F92A0A2B1B2BA5C0843009F49FC0823013
:1008200021F4EE24FF24870105C0E114F104010541
:10083000110519F4E0E0F0E096C0628173819FEF4A
:10084000623879070CF05BC022E83FEF261B370BBC
:100850002A3131052CF020E030E040E050E02AC0A1
:10086000B801A701022E04C0769567955795479564
:100870000A94D2F781E090E0A0E0B0E004C0880FD5
:10088000991FAA1FBB1F2A95D2F70197A109B10989
:100890008E219F21A023B1230097A105B10521F04E
:1008A00081E090E0A0E0B0E09A01AB01282B392B69
:1008B0004A2B5B2BDA01C9018F779070A070B07062
:1008C00080349105A105B10539F427FF09C0205CEA
:1008D0003F4F4F4F5F4F04C0215C3F4F4F4F5F4F23
:1008E000E0E0F0E02030A0E03A07A0E04A07A0E412
:1008F0005A0710F0E1E0F0E079018A0127C0603882
:10090000710564F5FB01E158FF4FD801C7018F77EE
:100910009070A070B07080349105A105B10539F4D4
:10092000E7FE0DC080E490E0A0E0B0E004C08FE3FB
:1009300090E0A0E0B0E0E80EF91E0A1F1B1F17FFB1
:1009400005C016950795F794E794319687E01695BC
:100950000795F794E7948A95D1F705C0EE24FF2414
:100960008701EFEFF0E06E2F679566276795902F70
:100970009F77D794DD24D7948E2F8695492F462BC9
:10098000582F5D29B701CA011F910F91FF90EF9079
:10099000DF900895FC01DB01408151812281622FAB
:1009A0006F7770E0221F2227221F9381892F880FE3
:1009B000822B282F30E0991F9927991F11969C931D
:1009C000119721153105A9F54115510561057105ED
:1009D00011F482E037C082E89FEF13969C938E93C8
:1009E00012979A01AB0167E0220F331F441F551F76
:1009F0006A95D1F783E08C930DC0220F331F441FFB
:100A0000551F12968D919C911397019713969C9365
:100A10008E931297203080E0380780E0480780E40A
:100A2000580758F314962D933D934D935C93179765
:100A300008952F3F310579F4411551056105710580
:100A400019F484E08C93089564FF03C081E08C93D3
:100A500012C01C9210C02F57304013963C932E9317
:100A6000129783E08C9387E0440F551F661F771F12
:100A70008A95D1F7706414964D935D936D937C9332
:100A8000179708951F93DC01FB019C91923008F4A5
:100A900047C08081823008F443C0943051F41196ED
:100AA0001C91843099F58181682F70E0611B710978
:100AB0003FC0843021F0923031F48230B9F181812D
:100AC000882389F12DC011961C9111978230F1F085
:100AD00081811817D9F412962D913C911397828138
:100AE00093818217930794F028173907BCF0149666
:100AF0008D919D910D90BC91A02D248135814681D1
:100B00005781281739074A075B0718F4112341F06A
:100B10000AC082179307A407B50740F4112319F000
:100B200061E070E005C06FEF7FEF02C060E070E051
:100B3000CB011F910895DF93CF93CDB7DEB72897F0
:100B40000FB6F894DEBF0FBECDBF8A836B834C8394
:100B500081E089838A81843008F0F1C08B818830FC
:100B600008F0EDC08C81813009F06FC08A81282F98
:100B700030E038872F838F8198858130910549F146
:100B80002F813885223031052CF48F81988500978C
:100B900061F0D6C02F8138852230310571F18F8107
:100BA000988583309105E9F1CBC0AAE3B0E0EAE390
:100BB000F0E08081482F8B81282F30E081E090E0A9
:100BC000022E02C0880F991F0A94E2F7842B8C939F
:100BD000B7C0A7E3B0E0E7E3F0E08081482F8B8166
:100BE000282F30E081E090E0022E02C0880F991F8C
:100BF0000A94E2F7842B8C93A3C0A4E3B0E0E4E36F
:100C0000F0E08081482F8B81282F30E081E090E058
:100C1000022E02C0880F991F0A94E2F7842B8C934E
:100C20008FC0A1E3B0E0E1E3F0E08081482F8B8149
:100C3000282F30E081E090E0022E02C0880F991F3B
:100C40000A94E2F7842B8C937BC08C81882309F073
:100C500074C08A81282F30E03E832D838D819E8150
:100C60008130910559F12D813E81223031052CF4DE
:100C70008D819E81009769F063C02D813E81223075
:100C8000310589F18D819E818330910509F440C041
:100C900057C0AAE3B0E0EAE3F0E08081482F8B81FF
:100CA000282F30E081E090E0022E02C0880F991FCB
:100CB0000A94E2F7809584238C9342C0A7E3B0E0C6
:100CC000E7E3F0E08081482F8B81282F30E081E03E
:100CD00090E0022E02C0880F991F0A94E2F78095D7
:100CE00084238C932DC0A4E3B0E0E4E3F0E08081A2
:100CF000482F8B81282F30E081E090E0022E02C047
:100D0000880F991F0A94E2F7809584238C9318C06A
:100D1000A1E3B0E0E1E3F0E08081482F8B81282F50
:100D200030E081E090E0022E02C0880F991F0A9403
:100D3000E2F7809584238C9303C0198201C0198245
:100D4000898128960FB6F894DEBF0FBECDBFCF9134
:100D5000DF910895DF93CF93CDB7DEB728970FB615
:100D6000F894DEBF0FBECDBF8A836B834C8381E0D6
:100D700089838A81843008F0F1C08B81883008F043
:100D8000EDC08C81813009F06FC08A81282F30E05E
:100D900038872F838F8198858130910549F12F8184
:100DA0003885223031052CF48F819885009761F0C9
:100DB000D6C02F8138852230310571F18F81988519
:100DC00083309105E9F1CBC0ABE3B0E0EBE3F0E0B9
:100DD0008081482F8B81282F30E081E090E0022E27
:100DE00002C0880F991F0A94E2F7842B8C93B7C036
:100DF000A8E3B0E0E8E3F0E08081482F8B81282F62
:100E000030E081E090E0022E02C0880F991F0A9422
:100E1000E2F7842B8C93A3C0A5E3B0E0E5E3F0E018
:100E20008081482F8B81282F30E081E090E0022ED6
:100E300002C0880F991F0A94E2F7842B8C938FC00D
:100E4000A2E3B0E0E2E3F0E08081482F8B81282F1D
:100E500030E081E090E0022E02C0880F991F0A94D2
:100E6000E2F7842B8C937BC08C81882309F074C0BB
:100E70008A81282F30E03E832D838D819E818130B1
:100E8000910559F12D813E81223031052CF48D815F
:100E90009E81009769F063C02D813E81223031052B
:100EA00089F18D819E818330910509F440C057C03E
:100EB000ABE3B0E0EBE3F0E08081482F8B81282F9B
:100EC00030E081E090E0022E02C0880F991F0A9462
:100ED000E2F7809584238C9342C0A8E3B0E0E8E376
:100EE000F0E08081482F8B81282F30E081E090E076
:100EF000022E02C0880F991F0A94E2F7809584237E
:100F00008C932DC0A5E3B0E0E5E3F0E08081482FAD
:100F10008B81282F30E081E090E0022E02C0880F04
:100F2000991F0A94E2F7809584238C9318C0A2E35A
:100F3000B0E0E2E3F0E08081482F8B81282F30E0A1
:100F400081E090E0022E02C0880F991F0A94E2F718
:100F5000809584238C9303C0198201C019828981F2
:100F600028960FB6F894DEBF0FBECDBFCF91DF91AC
:100F70000895DF93CF93CDB7DEB727970FB6F894D8
:100F8000DEBF0FBECDBF8A836B835D834C8381E060
:100F900089838A81843008F075C08B81883008F09D
:100FA00071C08A81282F30E03F832E834E815F817C
:100FB0004130510559F18E819F818230910534F481
:100FC0002E813F812115310569F05DC04E815F8121
:100FD0004230510579F18E819F818330910509F46A
:100FE0003DC051C0E9E3F0E08081282F30E08B81E3
:100FF000882F90E0A90102C0559547958A95E2F7A0
:10100000CA018170EC81FD8180833DC0E6E3F0E0A0
:101010008081282F30E08B81882F90E0A90102C0C9
:10102000559547958A95E2F7CA018170EC81FD815B
:10103000808329C0E3E3F0E08081282F30E08B81BA
:10104000882F90E0A90102C0559547958A95E2F74F
:10105000CA018170EC81FD81808315C0E0E3F0E07E
:101060008081282F30E08B81882F90E0A90102C079
:10107000559547958A95E2F7CA018170EC81FD810B
:10108000808301C01982898127960FB6F894DEBF4C
:101090000FBECDBFCF91DF910895DF93CF9300D0E6
:1010A00000D00F92CDB7DEB78A836B8381E089834E
:1010B0008A81843008F06FC08A81282F30E03D8318
:1010C0002C838C819D818130910549F12C813D815A
:1010D000223031052CF48C819D81009761F05CC039
:1010E0002C813D812230310571F18C819D818330CD
:1010F0009105E9F151C0ABE3B0E0EBE3F0E08081B2
:10110000482F8B81282F30E081E090E0022E02C032
:10111000880F991F0A94E2F784278C933DC0A8E3B7
:10112000B0E0E8E3F0E08081482F8B81282F30E0A9
:1011300081E090E0022E02C0880F991F0A94E2F726
:1011400084278C9329C0A5E3B0E0E5E3F0E080813B
:10115000482F8B81282F30E081E090E0022E02C0E2
:10116000880F991F0A94E2F784278C9315C0A2E395
:10117000B0E0E2E3F0E08081482F8B81282F30E05F
:1011800081E090E0022E02C0880F991F0A94E2F7D6
:1011900084278C9301C0198289810F900F900F9042
:1011A0000F900F90CF91DF910895DF93CF93CDB73C
:1011B000DEB727970FB6F894DEBF0FBECDBF8A8388
:1011C0006B8381E089838A81843008F01AC28B8125
:1011D000813009F008C18A81282F30E03F832E83B7
:1011E0008E819F818130910509F450C02E813F810D
:1011F000223031052CF48E819F81009771F0F1C06F
:101200002E813F812230310509F479C08E819F8182
:101210008330910509F4ACC0E4C0AAE3B0E0EAE38E
:10122000F0E0808181608C93AAE3B0E0EAE3F0E033
:10123000808182608C93AAE3B0E0EAE3F0E08081F1
:1012400084608C93AAE3B0E0EAE3F0E080818860F8
:101250008C93AAE3B0E0EAE3F0E0808180618C93B4
:10126000AAE3B0E0EAE3F0E0808180628C93AAE335
:10127000B0E0EAE3F0E0808180648C93AAE3B0E020
:10128000EAE3F0E0808180688C93BCC1A7E3B0E022
:10129000E7E3F0E0808181608C93A7E3B0E0E7E3CF
:1012A000F0E0808182608C93A7E3B0E0E7E3F0E0B8
:1012B000808184608C93A7E3B0E0E7E3F0E0808175
:1012C00088608C93A7E3B0E0E7E3F0E08081806181
:1012D0008C93A7E3B0E0E7E3F0E0808180628C9339
:1012E000A7E3B0E0E7E3F0E0808180648C93A7E3BC
:1012F000B0E0E7E3F0E0808180688C9383C1A4E3F1
:10130000B0E0E4E3F0E0808181608C93A4E3B0E09E
:10131000E4E3F0E0808182608C93A4E3B0E0E4E356
:10132000F0E0808184608C93A4E3B0E0E4E3F0E03B
:10133000808188608C93A4E3B0E0E4E3F0E08081F6
:1013400080618C93A4E3B0E0E4E3F0E0808180620C
:101350008C93A4E3B0E0E4E3F0E0808180648C93BC
:10136000A4E3B0E0E4E3F0E0808180688C934AC1BC
:10137000A1E3B0E0E1E3F0E0808181608C93A1E340
:10138000B0E0E1E3F0E0808182608C93A1E3B0E023
:10139000E1E3F0E0808184608C93A1E3B0E0E1E3DD
:1013A000F0E0808188608C93A1E3B0E0E1E3F0E0BD
:1013B000808180618C93A1E3B0E0E1E3F0E0808183
:1013C00080628C93A1E3B0E0E1E3F0E0808180648F
:1013D0008C93A1E3B0E0E1E3F0E0808180688C933E
:1013E00011C119820FC18B81882309F008C18A813C
:1013F000282F30E03D832C838C819D8181309105A5
:1014000009F450C02C813D81223031052CF48C81AF
:101410009D81009771F0F1C02C813D812230310512
:1014200009F479C08C819D818330910509F4ACC0A9
:10143000E4C0AAE3B0E0EAE3F0E080818E7F8C9321
:10144000AAE3B0E0EAE3F0E080818D7F8C93AAE329
:10145000B0E0EAE3F0E080818B7F8C93AAE3B0E018
:10146000EAE3F0E08081877F8C93AAE3B0E0EAE3CF
:10147000F0E080818F7E8C93AAE3B0E0EAE3F0E0B5
:1014800080818F7D8C93AAE3B0E0EAE3F0E0808175
:101490008F7B8C93AAE3B0E0EAE3F0E080818F7762
:1014A0008C93B0C0A7E3B0E0E7E3F0E080818E7FEB
:1014B0008C93A7E3B0E0E7E3F0E080818D7F8C932D
:1014C000A7E3B0E0E7E3F0E080818B7F8C93A7E3B4
:1014D000B0E0E7E3F0E08081877F8C93A7E3B0E0A2
:1014E000E7E3F0E080818F7E8C93A7E3B0E0E7E351
:1014F000F0E080818F7D8C93A7E3B0E0E7E3F0E03C
:1015000080818F7B8C93A7E3B0E0E7E3F0E08081FC
:101510008F778C9377C0A4E3B0E0E4E3F0E08081C0
:101520008E7F8C93A4E3B0E0E4E3F0E080818D7FD4
:101530008C93A4E3B0E0E4E3F0E080818B7F8C93B4
:10154000A4E3B0E0E4E3F0E08081877F8C93A4E340
:10155000B0E0E4E3F0E080818F7E8C93A4E3B0E020
:10156000E4E3F0E080818F7D8C93A4E3B0E0E4E3DA
:10157000F0E080818F7B8C93A4E3B0E0E4E3F0E0C3
:1015800080818F778C933EC0A1E3B0E0E1E3F0E08F
:1015900080818E7F8C93A1E3B0E0E1E3F0E0808175
:1015A0008D7F8C93A1E3B0E0E1E3F0E080818B7F5D
:1015B0008C93A1E3B0E0E1E3F0E08081877F8C933E
:1015C000A1E3B0E0E1E3F0E080818F7E8C93A1E3C2
:1015D000B0E0E1E3F0E080818F7D8C93A1E3B0E0A7
:1015E000E1E3F0E080818F7B8C93A1E3B0E0E1E365
:1015F000F0E080818F778C9305C0198203C0198237
:1016000001C01982898127960FB6F894DEBF0FBEFC
:10161000CDBFCF91DF910895DF93CF93CDB7DEB7E4
:1016200027970FB6F894DEBF0FBECDBF8A836B83BA
:1016300081E089838A81843008F01AC28B818130ED
:1016400009F008C18A81282F30E03F832E838E81E4
:101650009F818130910509F450C02E813F81223055
:1016600031052CF48E819F81009771F0F1C02E819D
:101670003F812230310509F479C08E819F8183300A
:10168000910509F4ACC0E4C0ABE3B0E0EBE3F0E0FB
:10169000808181608C93ABE3B0E0EBE3F0E080818C
:1016A00082608C93ABE3B0E0EBE3F0E08081846098
:1016B0008C93ABE3B0E0EBE3F0E0808188608C9347
:1016C000ABE3B0E0EBE3F0E0808180618C93ABE3CF
:1016D000B0E0EBE3F0E0808180628C93ABE3B0E0BC
:1016E000EBE3F0E0808180648C93ABE3B0E0EBE36C
:1016F000F0E0808180688C93BCC1A8E3B0E0E8E3AF
:10170000F0E0808181608C93A8E3B0E0E8E3F0E052
:10171000808182608C93A8E3B0E0E8E3F0E0808110
:1017200084608C93A8E3B0E0E8E3F0E08081886017
:101730008C93A8E3B0E0E8E3F0E0808180618C93D3
:10174000A8E3B0E0E8E3F0E0808180628C93A8E356
:10175000B0E0E8E3F0E0808180648C93A8E3B0E03F
:10176000E8E3F0E0808180688C9383C1A5E3B0E07A
:10177000E5E3F0E0808181608C93A5E3B0E0E5E3F0
:10178000F0E0808182608C93A5E3B0E0E5E3F0E0D7
:10179000808184608C93A5E3B0E0E5E3F0E0808194
:1017A00088608C93A5E3B0E0E5E3F0E080818061A0
:1017B0008C93A5E3B0E0E5E3F0E0808180628C9358
:1017C000A5E3B0E0E5E3F0E0808180648C93A5E3DD
:1017D000B0E0E5E3F0E0808180688C934AC1A2E349
:1017E000B0E0E2E3F0E0808181608C93A2E3B0E0BE
:1017F000E2E3F0E0808182608C93A2E3B0E0E2E378
:10180000F0E0808184608C93A2E3B0E0E2E3F0E05A
:10181000808188608C93A2E3B0E0E2E3F0E0808115
:1018200080618C93A2E3B0E0E2E3F0E0808180622B
:101830008C93A2E3B0E0E2E3F0E0808180648C93DB
:10184000A2E3B0E0E2E3F0E0808180688C9311C114
:1018500019820FC18B81882309F008C18A81282F42
:1018600030E03D832C838C819D818130910509F48A
:1018700050C02C813D81223031052CF48C819D811A
:10188000009771F0F1C02C813D812230310509F4BF
:1018900079C08C819D818330910509F4ACC0E4C08E
:1018A000ABE3B0E0EBE3F0E080818E7F8C93ABE3C1
:1018B000B0E0EBE3F0E080818D7F8C93ABE3B0E0B0
:1018C000EBE3F0E080818B7F8C93ABE3B0E0EBE364
:1018D000F0E08081877F8C93ABE3B0E0EBE3F0E056
:1018E00080818F7E8C93ABE3B0E0EBE3F0E080810E
:1018F0008F7D8C93ABE3B0E0EBE3F0E080818F7BF6
:101900008C93ABE3B0E0EBE3F0E080818F778C93D6
:10191000B0C0A8E3B0E0E8E3F0E080818E7F8C9374
:10192000A8E3B0E0E8E3F0E080818D7F8C93A8E34A
:10193000B0E0E8E3F0E080818B7F8C93A8E3B0E037
:10194000E8E3F0E08081877F8C93A8E3B0E0E8E3F0
:10195000F0E080818F7E8C93A8E3B0E0E8E3F0E0D4
:1019600080818F7D8C93A8E3B0E0E8E3F0E0808194
:101970008F7B8C93A8E3B0E0E8E3F0E080818F7781
:101980008C9377C0A5E3B0E0E5E3F0E080818E7F43
:101990008C93A5E3B0E0E5E3F0E080818D7F8C934C
:1019A000A5E3B0E0E5E3F0E080818B7F8C93A5E3D5
:1019B000B0E0E5E3F0E08081877F8C93A5E3B0E0C1
:1019C000E5E3F0E080818F7E8C93A5E3B0E0E5E372
:1019D000F0E080818F7D8C93A5E3B0E0E5E3F0E05B
:1019E00080818F7B8C93A5E3B0E0E5E3F0E080811C
:1019F0008F778C933EC0A2E3B0E0E2E3F0E0808119
:101A00008E7F8C93A2E3B0E0E2E3F0E080818D7FF3
:101A10008C93A2E3B0E0E2E3F0E080818B7F8C93D3
:101A2000A2E3B0E0E2E3F0E08081877F8C93A2E361
:101A3000B0E0E2E3F0E080818F7E8C93A2E3B0E03F
:101A4000E2E3F0E080818F7D8C93A2E3B0E0E2E3FB
:101A5000F0E080818F7B8C93A2E3B0E0E2E3F0E0E2
:101A600080818F778C9305C0198203C0198201C0D1
:101A70001982898127960FB6F894DEBF0FBECDBFBD
:101A8000CF91DF910895DF93CF93CDB7DEB72E9737
:101A90000FB6F894DEBF0FBECDBF8A877C876B87F9
:101AA00081E089878A85843008F026C118861F82E4
:101AB0001E821D821C821B821A8219828A85282F0F
:101AC00030E03E872D878D859E858130910509F414
:101AD00051C02D853E85223031052CF48D859E85A3
:101AE000009771F0F5C02D853E852230310509F44F
:101AF0007BC08D859E858330910509F4AFC0E8C019
:101B0000E9E3F0E0808181708887E9E3F0E080819B
:101B1000869581708F83E9E3F0E0808186958695D4
:101B200081708E83E9E3F0E08081869586958695C5
:101B300081708D83E9E3F0E0808182958F70817000
:101B40008C83E9E3F0E080818295869587708170CF
:101B50008B83E9E3F0E0808182958695869583709A
:101B600081708A83E9E3F0E08081881F8827881FDD
:101B70008983AFC0E6E3F0E0808181708887E6E387
:101B8000F0E08081869581708F83E6E3F0E08081CC
:101B90008695869581708E83E6E3F0E08081869558
:101BA0008695869581708D83E6E3F0E0808182954D
:101BB0008F7081708C83E6E3F0E08081829586955A
:101BC000877081708B83E6E3F0E080818295869553
:101BD0008695837081708A83E6E3F0E08081881FB8
:101BE0008827881F898375C0E3E3F0E080818170D6
:101BF0008887E3E3F0E08081869581708F83E3E35B
:101C0000F0E080818695869581708E83E3E3F0E035
:101C1000808186958695869581708D83E3E3F0E0DB
:101C2000808182958F7081708C83E3E3F0E0808106
:101C300082958695877081708B83E3E3F0E08081E5
:101C4000829586958695837081708A83E3E3F0E0C0
:101C50008081881F8827881F89833BC0E0E3F0E0EC
:101C6000808181708887E0E3F0E0808186958170D3
:101C70008F83E0E3F0E080818695869581708E8386
:101C8000E0E3F0E0808186958695869581708D836E
:101C9000E0E3F0E0808182958F7081708C83E0E3D7
:101CA000F0E0808182958695877081708B83E0E378
:101CB000F0E08081829586958695837081708A8315
:101CC000E0E3F0E08081881F8827881F898301C0B6
:101CD000198698858F8198238E8198238D819823EA
:101CE0008C8198238B8198238A81982389818923E9
:101CF000EB85FC85808301C0198689852E960FB6F9
:101D0000F894DEBF0FBECDBFCF91DF910895DF9372
:101D1000CF9300D000D0CDB7DEB78A8381E089832E
:101D20008A81843008F028C18A81282F30E03C83E2
:101D30002B838B819C818130910509F458C02B81C4
:101D40003C81223031052CF48B819C81009771F00D
:101D500011C12B813C812230310509F489C08B816E
:101D60009C818330910509F4C4C004C1ABE3B0E0A9
:101D7000EBE3F0E0908181E089278C93ABE3B0E066
:101D8000EBE3F0E0908182E089278C93ABE3B0E055
:101D9000EBE3F0E0908184E089278C93ABE3B0E043
:101DA000EBE3F0E0908188E089278C93ABE3B0E02F
:101DB000EBE3F0E0908180E189278C93ABE3B0E026
:101DC000EBE3F0E0908180E289278C93ABE3B0E015
:101DD000EBE3F0E0908180E489278C93ABE3B0E003
:101DE000EBE3F0E0908180E889278C93C6C0A8E3FC
:101DF000B0E0E8E3F0E0908181E089278C93A8E3EC
:101E0000B0E0E8E3F0E0908182E089278C93A8E3DA
:101E1000B0E0E8E3F0E0908184E089278C93A8E3C8
:101E2000B0E0E8E3F0E0908188E089278C93A8E3B4
:101E3000B0E0E8E3F0E0908180E189278C93A8E3AB
:101E4000B0E0E8E3F0E0908180E289278C93A8E39A
:101E5000B0E0E8E3F0E0908180E489278C93A8E388
:101E6000B0E0E8E3F0E0908180E889278C9385C0BA
:101E7000A5E3B0E0E5E3F0E0908181E089278C9371
:101E8000A5E3B0E0E5E3F0E0908182E089278C9360
:101E9000A5E3B0E0E5E3F0E0908184E089278C934E
:101EA000A5E3B0E0E5E3F0E0908188E089278C933A
:101EB000A5E3B0E0E5E3F0E0908180E189278C9331
:101EC000A5E3B0E0E5E3F0E0908180E289278C9320
:101ED000A5E3B0E0E5E3F0E0908180E489278C930E
:101EE000A5E3B0E0E5E3F0E0908180E889278C93FA
:101EF00044C0A2E3B0E0E2E3F0E0908181E0892712
:101F00008C93A2E3B0E0E2E3F0E0908182E08927E5
:101F10008C93A2E3B0E0E2E3F0E0908184E08927D3
:101F20008C93A2E3B0E0E2E3F0E0908188E08927BF
:101F30008C93A2E3B0E0E2E3F0E0908180E18927B6
:101F40008C93A2E3B0E0E2E3F0E0908180E28927A5
:101F50008C93A2E3B0E0E2E3F0E0908180E4892793
:101F60008C93A2E3B0E0E2E3F0E0908180E889277F
:101F70008C9303C0198201C0198289810F900F9040
:101F80000F900F90CF91DF910895DF93CF9300D002
:101F90000F92CDB7DEB769837A838B8389819A816B
:101FA000692F41E00E949B050F900F900F90CF91F9
:101FB000DF910895DF93CF9300D00F92CDB7DEB7B6
:101FC00069837A838B838B81813039F489819A810B
:101FD000692F41E00E94AA0609C08B81882331F451
:101FE00089819A81692F40E00E94AA060F900F9084
:101FF0000F90CF91DF910895DF93CF9300D00F9290
:10200000CDB7DEB769837A838B838B81813039F4D6
:1020100089819A81692F40E00E94AA0609C08B81BC
:10202000882331F489819A81692F41E00E94AA06B0
:102030000F900F900F90CF91DF910895DF93CF9382
:1020400000D00F92CDB7DEB769837A838B83898105
:102050009A81692F0E944D080F900F900F90CF9199
:10206000DF9108950F931F93DF93CF93CDB7DEB722
:10207000C450D1400FB6F894DEBF0FBECDBFCE0125
:102080008B539F4FC352DF4F99838883CD5DD040E0
:102090008DE790E0C152DF4F99838883CF5DD040B8
:1020A00093E0CF51DF4F9883C15ED040C152DF4FE4
:1020B000E881F981CF5DD0400080C152DF4F888137
:1020C0009981CF5DD0400196C152DF4F99838883BB
:1020D000CF5DD040C352DF4FE881F981CD5DD04064
:1020E0000082C352DF4F88819981CD5DD040019637
:1020F000C352DF4F99838883CD5DD040CF51DF4FEE
:102100009881C15ED0409150CF51DF4F9883C15E1E
:10211000D040CF51DF4FE881C15ED040EE2331F691
:10212000CE0188539F4FCE51DF4F99838883C25E83
:10213000D0408AE790E0CC51DF4F99838883C45E1A
:10214000D04093E0CA51DF4F9883C65ED040CC5157
:10215000DF4FE881F981C45ED0400080CC51DF4F71
:1021600088819981C45ED0400196CC51DF4F99831C
:102170008883C45ED040CE51DF4FE881F981C25ED2
:10218000D0400082CE51DF4F88819981C25ED0401D
:102190000196CE51DF4F99838883C25ED040CA51E9
:1021A000DF4F9881C65ED0409150CA51DF4F98836F
:1021B000C65ED040CA51DF4FE881C65ED040EE23F4
:1021C00031F6CE0185539F4FC951DF4F99838883E4
:1021D000C75ED04087E790E0C751DF4F998388837F
:1021E000C95ED04093E0C551DF4F9883CB5ED040AD
:1021F000C751DF4FE881F981C95ED0400080C751E7
:10220000DF4F88819981C95ED0400196C751DF4F69
:1022100099838883C95ED040C951DF4FE881F98135
:10222000C75ED0400082C951DF4F88819981C75E67
:10223000D0400196C951DF4F99838883C75ED04053
:10224000C551DF4F9881CB5ED0409150C551DF4FD3
:102250009883CB5ED040C551DF4FE881CB5ED04044
:10226000EE2331F6CE0182539F4FC451DF4F998345
:102270008883CC5ED04084E790E0C251DF4F9983E1
:102280008883CE5ED04093E0C051DF4F9883C05F1B
:10229000D040C251DF4FE881F981CE5ED04000804E
:1022A000C251DF4F88819981CE5ED0400196C251E4
:1022B000DF4F99838883CE5ED040C451DF4FE881E1
:1022C000F981CC5ED0400082C451DF4F8881998172
:1022D000CC5ED0400196C451DF4F99838883CC5E99
:1022E000D040C051DF4F9881C05FD0409150C05165
:1022F000DF4F9883C05FD040C051DF4FE881C05F9F
:10230000D040EE2331F6CE018F529F4FCF50DF4F9A
:1023100099838883C15FD04081E790E0CD50DF4F43
:1023200099838883C35FD04093E0CB50DF4F98837D
:10233000C55FD040CD50DF4FE881F981C35FD04009
:102340000080CD50DF4F88819981C35FD0400196D6
:10235000CD50DF4F99838883C35FD040CF50DF4F8C
:10236000E881F981C15FD0400082CF50DF4F888182
:102370009981C15FD0400196CF50DF4F9983888308
:10238000C15FD040CB50DF4F9881C55FD0409150A6
:10239000CB50DF4F9883C55FD040CB50DF4FE881F3
:1023A000C55FD040EE2331F6CE018C529F4FCA500C
:1023B000DF4F99838883C65FD0408EE690E0C85097
:1023C000DF4F99838883C85FD04093E0C650DF4FCA
:1023D0009883CA5FD040C850DF4FE881F981C85F59
:1023E000D0400080C850DF4F88819981C85FD040BD
:1023F0000196C850DF4F99838883C85FD040CA5088
:10240000DF4FE881F981C65FD0400082CA50DF4FBC
:1024100088819981C65FD0400196CA50DF4F998369
:102420008883C65FD040C650DF4F9881CA5FD040D6
:102430009150C650DF4F9883CA5FD040C650DF4FDF
:10244000E881CA5FD040EE2331F6CE0189529F4F1A
:10245000C550DF4F99838883CB5FD0408BE690E0F7
:10246000C350DF4F99838883CD5FD04093E0C15044
:10247000DF4F9883CF5FD040C350DF4FE881F981B1
:10248000CD5FD0400080C350DF4F88819981CD5F00
:10249000D0400196C350DF4F99838883CD5FD040F1
:1024A000C550DF4FE881F981CB5FD0400082C55035
:1024B000DF4F88819981CB5FD0400196C550DF4FB7
:1024C00099838883CB5FD040C150DF4F9881CF5F25
:1024D000D0409150C150DF4F9883CF5FD040C15062
:1024E000DF4FE881CF5FD040EE2331F6CE01865238
:1024F0009F4FC050DF4F99838883C050D14088E6FA
:1025000090E0CE5FDE4F99838883C250D14093E044
:10251000CC5FDE4F9883C450D140CE5FDE4FE88160
:10252000F981C250D1400080CE5FDE4F8881998111
:10253000C250D1400196CE5FDE4F99838883C2504E
:10254000D140C050DF4FE881F981C050D1400082B6
:10255000C050DF4F88819981C050D1400196C05052
:10256000DF4F99838883C050D140CC5FDE4F988184
:10257000C450D1409150CC5FDE4F9883C450D140BD
:10258000CC5FDE4FE881C450D140EE2331F6FE012E
:10259000EB53FF4F6081718182810E94C50FFE0164
:1025A000E853FF4F6081718182810E94C50FFE0157
:1025B000E553FF4F6081718182810E94C50FFE014A
:1025C000E253FF4F6081718182810E94C50FFE013D
:1025D000EF52FF4F6081718182810E94C50FFE0121
:1025E000EC52FF4F6081718182810E94C50FFE0114
:1025F000E952FF4F6081718182810E94C50FFE0107
:10260000E652FF4F6081718182810E94C50FFE01F9
:10261000EB53FF4F6081718182810E94DA0FFE01CE
:10262000E853FF4F6081718182810E94FC0FFE019F
:10263000EF53FF4F80E090E0AAE7B3E480839183FB
:10264000A283B3838E0103541F4FFE01EF53FF4F4C
:10265000608171818281938120E030E04AEF54E40F
:102660000E941702DC01CB01F80180839183A283D1
:10267000B383FE01E354FF4F6081718182819381B6
:1026800020E030E040E85FE30E947103882344F4D7
:10269000FE01E554FF4F81E090E09183808364C0A8
:1026A000FE01E354FF4F608171818281938120E0BC
:1026B0003FEF4FE757E40E94110318160CF043C098
:1026C000FE01EF53FF4F608171818281938120E091
:1026D00030E040E251E40E941702DC01CB018E01A0
:1026E00005541F4FBC01CD010E944100DC01CB010C
:1026F000F801918380831FC0FE01E754FF4F88ECEF
:1027000090E091838083FE01E754FF4F80819181A7
:102710000197F1F7FE01E754FF4F91838083DE01BB
:10272000A554BF4FFE01E554FF4F80819181019771
:1027300011969C938E93FE01E554FF4F8081918109
:102740000097D1F627C08E0105541F4FFE01E354B8
:10275000FF4F60817181828193810E944100DC0181
:10276000CB01F80191838083DE01A954BF4FFE01A4
:10277000E554FF4F808191818D939C93FE01E95434
:10278000FF4F808191810197F1F7FE01E954FF4FDE
:1027900091838083FE01E853FF4F608171818281C4
:1027A0000E94DA0FFE01EB53FF4F6081718182813D
:1027B0000E94FC0FFE01ED54FF4F80E090E0AAE77D
:1027C000B3E480839183A283B3838E0101551F4FAD
:1027D000FE01ED54FF4F608171818281938120E081
:1027E00030E04AEF54E40E941702DC01CB01F8010B
:1027F00080839183A283B383FE01E155FF4F608103
:1028000071818281938120E030E040E85FE30E94A3
:102810007103882344F4FE01E355FF4F81E090E00B
:102820009183808364C0FE01E155FF4F6081718117
:102830008281938120E03FEF4FE757E40E9411032C
:1028400018160CF043C0FE01ED54FF4F60817181FA
:102850008281938120E030E040E251E40E9417023F
:10286000DC01CB018E0103551F4FBC01CD010E943D
:102870004100DC01CB01F801918380831FC0FE0180
:10288000E555FF4F88EC90E091838083FE01E5558C
:10289000FF4F808191810197F1F7FE01E555FF4FD0
:1028A00091838083DE01A355BF4FFE01E355FF4FA7
:1028B00080819181019711969C938E93FE01E3553F
:1028C000FF4F808191810097D1F627C08E0103557B
:1028D0001F4FFE01E155FF4F60817181828193811D
:1028E0000E944100DC01CB01F80191838083DE016D
:1028F000A755BF4FFE01E355FF4F808191818D9316
:102900009C93FE01E755FF4F808191810197F1F77C
:10291000FE01E755FF4F91838083FE01E553FF4F92
:102920006081718182810E94DA0FFE01E853FF4FBE
:102930006081718182810E94FC0FFE01EB55FF4F87
:1029400080E090E0AAE7B3E480839183A283B3831D
:102950008E010F551F4FFE01EB55FF4F60817181B6
:102960008281938120E030E04AEF54E40E94170214
:10297000DC01CB01F80180839183A283B383FE0144
:10298000EF55FF4F608171818281938120E030E0BB
:1029900040E85FE30E947103882344F4FE01E1569E
:1029A000FF4F81E090E09183808364C0FE01EF558A
:1029B000FF4F608171818281938120E03FEF4FE77B
:1029C00057E40E94110318160CF043C0FE01EB55AA
:1029D000FF4F608171818281938120E030E040E28D
:1029E00051E40E941702DC01CB018E0101561F4FFA
:1029F000BC01CD010E944100DC01CB01F8019183B3
:102A000080831FC0FE01E356FF4F88EC90E0918366
:102A10008083FE01E356FF4F808191810197F1F79A
:102A2000FE01E356FF4F91838083DE01A156BF4F25
:102A3000FE01E156FF4F80819181019711969C9391
:102A40008E93FE01E156FF4F808191810097D1F670
:102A500027C08E0101561F4FFE01EF55FF4F6081C9
:102A60007181828193810E944100DC01CB01F801D8
:102A700091838083DE01A556BF4FFE01E156FF4FD3
:102A8000808191818D939C93FE01E556FF4F80815B
:102A900091810197F1F7FE01E556FF4F9183808305
:102AA000FE01E253FF4F6081718182810E94DA0F43
:102AB000FE01E553FF4F6081718182810E94FC0F0E
:102AC000FE01E956FF4F80E090E0AAE7B3E480837F
:102AD0009183A283B3838E010D561F4FFE01E956E9
:102AE000FF4F608171818281938120E030E04AEF65
:102AF00054E40E941702DC01CB01F801808391832A
:102B0000A283B383FE01ED56FF4F60817181828104
:102B1000938120E030E040E85FE30E947103882366
:102B200044F4FE01EF56FF4F81E090E091838083F3
:102B300064C0FE01ED56FF4F6081718182819381F7
:102B400020E03FEF4FE757E40E94110318160CF006
:102B500043C0FE01E956FF4F6081718182819381FC
:102B600020E030E040E251E40E941702DC01CB019A
:102B70008E010F561F4FBC01CD010E944100DC01A8
:102B8000CB01F801918380831FC0FE01E157FF4F05
:102B900088EC90E091838083FE01E157FF4F8081B4
:102BA00091810197F1F7FE01E157FF4F91838083F7
:102BB000DE01AF56BF4FFE01EF56FF4F808191817E
:102BC000019711969C938E93FE01EF56FF4F8081E3
:102BD00091810097D1F627C08E010F561F4FFE013D
:102BE000ED56FF4F60817181828193810E94410087
:102BF000DC01CB01F80191838083DE01A357BF4F35
:102C0000FE01EF56FF4F808191818D939C93FE01D1
:102C1000E357FF4F808191810197F1F7FE01E35760
:102C2000FF4F91838083FE01EF52FF4F60817181DE
:102C300082810E94DA0FFE01E253FF4F60817181B1
:102C400082810E94FC0FFE01E757FF4F80E090E079
:102C5000AAE7B3E480839183A283B3838E010B57E9
:102C60001F4FFE01E757FF4F608171818281938181
:102C700020E030E04AEF54E40E941702DC01CB016F
:102C8000F80180839183A283B383FE01EB57FF4F4A
:102C9000608171818281938120E030E040E85FE3D0
:102CA0000E947103882344F4FE01ED57FF4F81E039
:102CB00090E09183808364C0FE01EB57FF4F6081F9
:102CC00071818281938120E03FEF4FE757E40E94BA
:102CD000110318160CF043C0FE01E757FF4F608147
:102CE00071818281938120E030E040E251E40E94D2
:102CF0001702DC01CB018E010D571F4FBC01CD0126
:102D00000E944100DC01CB01F801918380831FC048
:102D1000FE01EF57FF4F88EC90E091838083FE0126
:102D2000EF57FF4F808191810197F1F7FE01EF5737
:102D3000FF4F91838083DE01AD57BF4FFE01ED57FA
:102D4000FF4F80819181019711969C938E93FE0194
:102D5000ED57FF4F808191810097D1F627C08E01FA
:102D60000D571F4FFE01EB57FF4F6081718182812C
:102D700093810E944100DC01CB01F80191838083A3
:102D8000DE01A158BF4FFE01ED57FF4F80819181B9
:102D90008D939C93FE01E158FF4F808191810197B3
:102DA000F1F7FE01E158FF4F91838083FE01EC5261
:102DB000FF4F6081718182810E94DA0FFE01EF5224
:102DC000FF4F6081718182810E94FC0FFE01E558F6
:102DD000FF4F80E090E0AAE7B3E480839183A28371
:102DE000B3838E0109581F4FFE01E558FF4F6081E4
:102DF00071818281938120E030E04AEF54E40E94A7
:102E00001702DC01CB01F80180839183A283B38395
:102E1000FE01E958FF4F608171818281938120E03A
:102E200030E040E85FE30E947103882344F4FE0130
:102E3000EB58FF4F81E090E09183808364C0FE01F6
:102E4000E958FF4F608171818281938120E03FEFDB
:102E50004FE757E40E94110318160CF043C0FE011F
:102E6000E558FF4F608171818281938120E030E0DD
:102E700040E251E40E941702DC01CB018E010B58A5
:102E80001F4FBC01CD010E944100DC01CB01F801C4
:102E9000918380831FC0FE01ED58FF4F88EC90E0C6
:102EA00091838083FE01ED58FF4F808191810197CE
:102EB000F1F7FE01ED58FF4F91838083DE01AB589F
:102EC000BF4FFE01EB58FF4F808191810197119612
:102ED0009C938E93FE01EB58FF4F80819181009768
:102EE000D1F627C08E010B581F4FFE01E958FF4F46
:102EF00060817181828193810E944100DC01CB015C
:102F0000F80191838083DE01AF58BF4FFE01EB587B
:102F1000FF4F808191818D939C93FE01EF58FF4F6D
:102F2000808191810197F1F7FE01EF58FF4F918366
:102F30008083FE01E952FF4F6081718182810E948E
:102F4000DA0FFE01EC52FF4F6081718182810E9495
:102F5000FC0FFE01E359FF4F80E090E0AAE7B3E4E5
:102F600080839183A283B3838E0107591F4FFE0193
:102F7000E359FF4F608171818281938120E030E0CD
:102F80004AEF54E40E941702DC01CB01F801808370
:102F90009183A283B383FE01E759FF4F6081718162
:102FA0008281938120E030E040E85FE30E9471037A
:102FB000882344F4FE01E959FF4F81E090E09183BA
:102FC000808364C0FE01E759FF4F60817181828177
:102FD000938120E03FEF4FE757E40E94110318165A
:102FE0000CF043C0FE01E359FF4F60817181828183
:102FF000938120E030E040E251E40E941702DC01BE
:10300000CB018E0109591F4FBC01CD010E94410027
:10301000DC01CB01F801918380831FC0FE01EB59D5
:10302000FF4F88EC90E091838083FE01EB59FF4FC6
:10303000808191810197F1F7FE01EB59FF4F918358
:103040008083DE01A959BF4FFE01E959FF4F8081FE
:103050009181019711969C938E93FE01E959FF4F40
:10306000808191810097D1F627C08E0109591F4FA9
:10307000FE01E759FF4F60817181828193810E9437
:103080004100DC01CB01F80191838083DE01AD5961
:10309000BF4FFE01E959FF4F808191818D939C9331
:1030A000FE01ED59FF4F808191810197F1F7FE01FB
:1030B000ED59FF4F91838083FE01E652FF4F6081FF
:1030C000718182810E94DA0FFE01E952FF4F608117
:1030D000718182810E94FC0FFE01E15AFF4F80E066
:1030E00090E0AAE7B3E480839183A283B3838E0147
:1030F000055A1F4FFE01E15AFF4F608171818281A5
:10310000938120E030E04AEF54E40E941702DC0192
:10311000CB01F80180839183A283B383FE01E55A3A
:10312000FF4F608171818281938120E030E040E82F
:103130005FE30E947103882344F4FE01E75AFF4FC6
:1031400081E090E09183808364C0FE01E55AFF4FE7
:10315000608171818281938120E03FEF4FE757E4E6
:103160000E94110318160CF043C0FE01E15AFF4FF4
:10317000608171818281938120E030E040E251E4FE
:103180000E941702DC01CB018E01075A1F4FBC01C0
:10319000CD010E944100DC01CB01F80191838083C5
:1031A0001FC0FE01E95AFF4F88EC90E091838083B5
:1031B000FE01E95AFF4F808191810197F1F7FE01ED
:1031C000E95AFF4F91838083DE01A75ABF4FFE016A
:1031D000E75AFF4F80819181019711969C938E93BE
:1031E000FE01E75AFF4F808191810097D1F627C0F9
:1031F0008E01075A1F4FFE01E55AFF4F6081718112
:10320000828193810E944100DC01CB01F80191830E
:103210008083DE01AB5ABF4FFE01E75AFF4F80812A
:1032200091818D939C93FE01EB5AFF4F8081918198
:103230000197F1F7FE01EB5AFF4F91838083FE0166
:10324000E952FF4F6081718182810E94DA0FFE0195
:10325000E652FF4F6081718182810E94FC0FFE0166
:10326000EF5AFF4F80E090E0AAE7B3E480839183B8
:10327000A283B3838E01035B1F4FFE01EF5AFF4F02
:10328000608171818281938120E030E04AEF54E4D3
:103290000E941702DC01CB01F80180839183A28395
:1032A000B383FE01E35BFF4F608171818281938173
:1032B00020E030E040E85FE30E947103882344F49B
:1032C000FE01E55BFF4F81E090E09183808364C065
:1032D000FE01E35BFF4F608171818281938120E079
:1032E0003FEF4FE757E40E94110318160CF043C05C
:1032F000FE01EF5AFF4F608171818281938120E04E
:1033000030E040E251E40E941702DC01CB018E0163
:10331000055B1F4FBC01CD010E944100DC01CB01C8
:10332000F801918380831FC0FE01E75BFF4F88ECAB
:1033300090E091838083FE01E75BFF4F8081918164
:103340000197F1F7FE01E75BFF4F91838083DE0178
:10335000A55BBF4FFE01E55BFF4F80819181019727
:1033600011969C938E93FE01E55BFF4F80819181C6
:103370000097D1F627C08E01055B1F4FFE01E35B6E
:10338000FF4F60817181828193810E944100DC0145
:10339000CB01F80191838083DE01A95BBF4FFE0161
:1033A000E55BFF4F808191818D939C93FE01E95BEA
:1033B000FF4F808191810197F1F7FE01E95BFF4F9B
:1033C00091838083FE01EC52FF4F60817181828185
:1033D0000E94DA0FFE01E952FF4F60817181828104
:1033E0000E94FC0FFE01ED5BFF4F80E090E0AAE73A
:1033F000B3E480839183A283B3838E01015C1F4F6A
:10340000FE01ED5BFF4F608171818281938120E03D
:1034100030E04AEF54E40E941702DC01CB01F801CE
:1034200080839183A283B383FE01FF9660817181C3
:103430008281938120E030E040E85FE30E947103E5
:1034400088232CF481E090E09EAF8DAF46C0FE0152
:10345000FF96608171818281938120E03FEF4FE789
:1034600057E40E941103181664F5FE01ED5BFF4F4F
:10347000608171818281938120E030E040E251E4FB
:103480000E941702DC01CB01BC01CD010E9441006A
:10349000DC01CB019EAF8DAF0FC088EC90E09CAFFC
:1034A0008BAF8BAD9CAD0197F1F79CAF8BAF8DAD22
:1034B0009EAD01979EAF8DAF8DAD9EAD009769F724
:1034C00016C0FE01FF9660817181828193810E9406
:1034D0004100DC01CB019EAF8DAF8DAD9EAD9AAFAB
:1034E00089AF89AD9AAD0197F1F79AAF89AFFE0127
:1034F000EF52FF4F6081718182810E94DA0FFE01DD
:10350000EC52FF4F6081718182810E94FC0F80E04C
:1035100090E0AAE7B3E48DAB9EABAFABB8AF6DA9BB
:103520007EA98FA998AD20E030E04AEF54E40E94D4
:103530001702DC01CB0189AB9AABABABBCAB69A981
:103540007AA98BA99CA920E030E040E85FE30E94C3
:10355000710388232CF481E090E098AB8FA73FC0E3
:1035600069A97AA98BA99CA920E03FEF4FE757E40E
:103570000E94110318164CF56DA97EA98FA998AD6C
:1035800020E030E040E251E40E941702DC01CB0170
:10359000BC01CD010E944100DC01CB0198AB8FA79B
:1035A0000FC088EC90E09EA78DA78DA59EA50197E2
:1035B000F1F79EA78DA78FA598A9019798AB8FA724
:1035C0008FA598A9009769F714C069A97AA98BA952
:1035D0009CA90E944100DC01CB0198AB8FA78FA56D
:1035E00098A99CA78BA78BA59CA50197F1F79CA7F1
:1035F0008BA7FE01E253FF4F6081718182810E949F
:10360000DA0FFE01EF52FF4F6081718182810E94CB
:10361000FC0F80E090E0AAE7B3E48FA398A7A9A7E6
:10362000BAA76FA178A589A59AA520E030E04AEF56
:1036300054E40E941702DC01CB018BA39CA3ADA331
:10364000BEA36BA17CA18DA19EA120E030E040E84B
:103650005FE30E94710388232CF481E090E09AA339
:1036600089A33FC06BA17CA18DA19EA120E03FEF6B
:103670004FE757E40E94110318164CF56FA178A587
:1036800089A59AA520E030E040E251E40E941702AB
:10369000DC01CB01BC01CD010E944100DC01CB016A
:1036A0009AA389A30FC088EC90E098A38F8F8F8D89
:1036B00098A10197F1F798A38F8F89A19AA10197FB
:1036C0009AA389A389A19AA1009769F714C06BA155
:1036D0007CA18DA19EA10E944100DC01CB019AA397
:1036E00089A389A19AA19E8F8D8F8D8D9E8D019723
:1036F000F1F79E8F8D8FFE01E553FF4F6081718141
:1037000082810E94DA0FFE01E253FF4F60817181D6
:1037100082810E94FC0F80E090E0AAE7B3E4898FE9
:103720009A8FAB8FBC8F698D7A8D8B8D9C8D20E0AD
:1037300030E04AEF54E40E941702DC01CB018D8B8C
:103740009E8BAF8BB88F6D897E898F89988D20E095
:1037500030E040E85FE30E94710388232CF481E0AD
:1037600090E09C8B8B8B3FC06D897E898F89988D73
:1037700020E03FEF4FE757E40E94110318164CF585
:10378000698D7A8D8B8D9C8D20E030E040E251E494
:103790000E941702DC01CB01BC01CD010E94410057
:1037A000DC01CB019C8B8B8B0FC088EC90E09A8B5B
:1037B000898B89899A890197F1F79A8B898B8B89F3
:1037C0009C8901979C8B8B8B8B899C89009769F7CF
:1037D00014C06D897E898F89988D0E944100DC011B
:1037E000CB019C8B8B8B8B899C89988B8F878F854A
:1037F00098890197F1F7988B8F87FE01E853FF4F67
:103800006081718182810E94DA0FFE01E553FF4FD2
:103810006081718182810E94FC0F80E090E0AAE7C4
:10382000B3E48B879C87AD87BE876B857C858D8550
:103830009E8520E030E04AEF54E40E941702DC014C
:10384000CB018F839887A987BA876F81788589850F
:103850009A8520E030E040E85FE30E94710388230E
:103860002CF481E090E09E838D8340C06F81788549
:1038700089859A8520E03FEF4FE757E40E941103C6
:10388000181654F56B857C858D859E8520E030E08B
:1038900040E251E40E941702DC01CB01BC01CD01E2
:1038A0000E944100DC01CB019E838D830FC088EC18
:1038B00090E09C838B838B819C810197F1F79C83A3
:1038C0008B838D819E8101979E838D838D819E81C7
:1038D000009769F70C9407136F81788589859A851D
:1038E0000E944100DC01CB019E838D838D819E81EE
:1038F0009A83898389819A810197F1F79A838983D1
:103900000C9407132F923F924F925F926F927F9287
:103910008F929F92AF92BF92CF92DF92EF92FF92DF
:103920000F931F93CF93DF93CDB7DEB7CA1BDB0B8B
:103930000FB6F894DEBF0FBECDBF09942A88398830
:1039400048885F846E847D848C849B84AA84B98437
:10395000C884DF80EE80FD800C811B81AA81B98143
:10396000CE0FD11D0FB6F894DEBF0FBECDBFED0157
:063970000895F894FFCF5A
:10397600000000000000000000070100060100052D
:103986000100040100030100020100010100000121
:00000001FF
